{
  "_format": "hh-sol-artifact-1",
  "contractName": "DocumentRegistry",
  "sourceName": "contracts/DocumentRegistry.sol",
  "abi": [
    {
      "inputs": [],
      "stateMutability": "nonpayable",
      "type": "constructor"
    },
    {
      "inputs": [],
      "name": "AccessControlBadConfirmation",
      "type": "error"
    },
    {
      "inputs": [
        {
          "internalType": "address",
          "name": "account",
          "type": "address"
        },
        {
          "internalType": "bytes32",
          "name": "neededRole",
          "type": "bytes32"
        }
      ],
      "name": "AccessControlUnauthorizedAccount",
      "type": "error"
    },
    {
      "anonymous": false,
      "inputs": [
        {
          "indexed": true,
          "internalType": "bytes32",
          "name": "role",
          "type": "bytes32"
        },
        {
          "indexed": true,
          "internalType": "bytes32",
          "name": "previousAdminRole",
          "type": "bytes32"
        },
        {
          "indexed": true,
          "internalType": "bytes32",
          "name": "newAdminRole",
          "type": "bytes32"
        }
      ],
      "name": "RoleAdminChanged",
      "type": "event"
    },
    {
      "anonymous": false,
      "inputs": [
        {
          "indexed": true,
          "internalType": "bytes32",
          "name": "role",
          "type": "bytes32"
        },
        {
          "indexed": true,
          "internalType": "address",
          "name": "account",
          "type": "address"
        },
        {
          "indexed": true,
          "internalType": "address",
          "name": "sender",
          "type": "address"
        }
      ],
      "name": "RoleGranted",
      "type": "event"
    },
    {
      "anonymous": false,
      "inputs": [
        {
          "indexed": true,
          "internalType": "bytes32",
          "name": "role",
          "type": "bytes32"
        },
        {
          "indexed": true,
          "internalType": "address",
          "name": "account",
          "type": "address"
        },
        {
          "indexed": true,
          "internalType": "address",
          "name": "sender",
          "type": "address"
        }
      ],
      "name": "RoleRevoked",
      "type": "event"
    },
    {
      "inputs": [],
      "name": "ADMIN_ROLE",
      "outputs": [
        {
          "internalType": "bytes32",
          "name": "",
          "type": "bytes32"
        }
      ],
      "stateMutability": "view",
      "type": "function"
    },
    {
      "inputs": [],
      "name": "AGRICULTURE_ROLE",
      "outputs": [
        {
          "internalType": "bytes32",
          "name": "",
          "type": "bytes32"
        }
      ],
      "stateMutability": "view",
      "type": "function"
    },
    {
      "inputs": [],
      "name": "DEFAULT_ADMIN_ROLE",
      "outputs": [
        {
          "internalType": "bytes32",
          "name": "",
          "type": "bytes32"
        }
      ],
      "stateMutability": "view",
      "type": "function"
    },
    {
      "inputs": [],
      "name": "FINANCE_ROLE",
      "outputs": [
        {
          "internalType": "bytes32",
          "name": "",
          "type": "bytes32"
        }
      ],
      "stateMutability": "view",
      "type": "function"
    },
    {
      "inputs": [],
      "name": "HEALTHCARE_ROLE",
      "outputs": [
        {
          "internalType": "bytes32",
          "name": "",
          "type": "bytes32"
        }
      ],
      "stateMutability": "view",
      "type": "function"
    },
    {
      "inputs": [
        {
          "internalType": "string",
          "name": "docId",
          "type": "string"
        }
      ],
      "name": "getDocument",
      "outputs": [
        {
          "internalType": "string",
          "name": "",
          "type": "string"
        },
        {
          "internalType": "address",
          "name": "",
          "type": "address"
        },
        {
          "internalType": "string",
          "name": "",
          "type": "string"
        },
        {
          "internalType": "uint256",
          "name": "",
          "type": "uint256"
        }
      ],
      "stateMutability": "view",
      "type": "function"
    },
    {
      "inputs": [
        {
          "internalType": "bytes32",
          "name": "role",
          "type": "bytes32"
        }
      ],
      "name": "getRoleAdmin",
      "outputs": [
        {
          "internalType": "bytes32",
          "name": "",
          "type": "bytes32"
        }
      ],
      "stateMutability": "view",
      "type": "function"
    },
    {
      "inputs": [
        {
          "internalType": "bytes32",
          "name": "role",
          "type": "bytes32"
        },
        {
          "internalType": "address",
          "name": "account",
          "type": "address"
        }
      ],
      "name": "grantRole",
      "outputs": [],
      "stateMutability": "nonpayable",
      "type": "function"
    },
    {
      "inputs": [
        {
          "internalType": "bytes32",
          "name": "role",
          "type": "bytes32"
        },
        {
          "internalType": "address",
          "name": "account",
          "type": "address"
        }
      ],
      "name": "hasRole",
      "outputs": [
        {
          "internalType": "bool",
          "name": "",
          "type": "bool"
        }
      ],
      "stateMutability": "view",
      "type": "function"
    },
    {
      "inputs": [
        {
          "internalType": "string",
          "name": "docId",
          "type": "string"
        },
        {
          "internalType": "string",
          "name": "hash",
          "type": "string"
        },
        {
          "internalType": "string",
          "name": "domain",
          "type": "string"
        }
      ],
      "name": "registerDocument",
      "outputs": [],
      "stateMutability": "nonpayable",
      "type": "function"
    },
    {
      "inputs": [
        {
          "internalType": "bytes32",
          "name": "role",
          "type": "bytes32"
        },
        {
          "internalType": "address",
          "name": "callerConfirmation",
          "type": "address"
        }
      ],
      "name": "renounceRole",
      "outputs": [],
      "stateMutability": "nonpayable",
      "type": "function"
    },
    {
      "inputs": [
        {
          "internalType": "bytes32",
          "name": "role",
          "type": "bytes32"
        },
        {
          "internalType": "address",
          "name": "account",
          "type": "address"
        }
      ],
      "name": "revokeRole",
      "outputs": [],
      "stateMutability": "nonpayable",
      "type": "function"
    },
    {
      "inputs": [
        {
          "internalType": "bytes4",
          "name": "interfaceId",
          "type": "bytes4"
        }
      ],
      "name": "supportsInterface",
      "outputs": [
        {
          "internalType": "bool",
          "name": "",
          "type": "bool"
        }
      ],
      "stateMutability": "view",
      "type": "function"
    }
  ],
  "bytecode": "0x60806040523480156200001157600080fd5b50620000276000801b336200006160201b60201c565b506200005a7fa49807205ce4d355092ef5a8a18f56e8913cf4a201fbe287825b095693c21775336200006160201b60201c565b50620001d6565b60006200007583836200016460201b60201c565b6200015957600160008085815260200190815260200160002060000160008473ffffffffffffffffffffffffffffffffffffffff1673ffffffffffffffffffffffffffffffffffffffff16815260200190815260200160002060006101000a81548160ff021916908315150217905550620000f5620001ce60201b60201c565b73ffffffffffffffffffffffffffffffffffffffff168273ffffffffffffffffffffffffffffffffffffffff16847f2f8788117e7eff1d82e926ec794901d17c78024a50270940304540a733656f0d60405160405180910390a4600190506200015e565b600090505b92915050565b600080600084815260200190815260200160002060000160008373ffffffffffffffffffffffffffffffffffffffff1673ffffffffffffffffffffffffffffffffffffffff16815260200190815260200160002060009054906101000a900460ff16905092915050565b600033905090565b6116e180620001e66000396000f3fe608060405234801561001057600080fd5b50600436106100cf5760003560e01c806375b238fc1161008c57806391d148541161006657806391d1485414610215578063a217fddf14610245578063c1e6081214610263578063d547741f14610281576100cf565b806375b238fc146101a65780637ccb6a64146101c45780637f7cccd0146101f7576100cf565b806301ffc9a7146100d457806313a3d9a114610104578063248a9ca3146101205780632f2ff15d14610150578063349b59541461016c57806336568abe1461018a575b600080fd5b6100ee60048036038101906100e99190610d4f565b61029d565b6040516100fb9190610d97565b60405180910390f35b61011e60048036038101906101199190610ef8565b610317565b005b61013a60048036038101906101359190610fd5565b610627565b6040516101479190611011565b60405180910390f35b61016a6004803603810190610165919061108a565b610646565b005b610174610668565b6040516101819190611011565b60405180910390f35b6101a4600480360381019061019f919061108a565b61068c565b005b6101ae610707565b6040516101bb9190611011565b60405180910390f35b6101de60048036038101906101d991906110ca565b61072b565b6040516101ee94939291906111ba565b60405180910390f35b6101ff61094e565b60405161020c9190611011565b60405180910390f35b61022f600480360381019061022a919061108a565b610972565b60405161023c9190610d97565b60405180910390f35b61024d6109dc565b60405161025a9190611011565b60405180910390f35b61026b6109e3565b6040516102789190611011565b60405180910390f35b61029b6004803603810190610296919061108a565b610a07565b005b60007f7965db0b000000000000000000000000000000000000000000000000000000007bffffffffffffffffffffffffffffffffffffffffffffffffffffffff1916827bffffffffffffffffffffffffffffffffffffffffffffffffffffffff19161480610310575061030f82610a29565b5b9050919050565b60006001846040516103299190611249565b9081526020016040518091039020600301541461037b576040517f08c379a0000000000000000000000000000000000000000000000000000000008152600401610372906112ac565b60405180910390fd5b7f40d661a115d3e36b27c57a949e413e228322fa702f404aad99ea2bfbb7337868818051906020012003610417576103d37f09fa0ba11487882f6f58527e85c124f586103e5123a9c74f7173b805235946d933610972565b610412576040517f08c379a000000000000000000000000000000000000000000000000000000000815260040161040990611318565b60405180910390fd5b61054d565b7fc4b7c033093246881b0dc005e67132bb7a95e67f2c41976893c6b3ab2ae789ed8180519060200120036104b35761046f7f67ece15bd133b11598a907fb44de3d08dcf88cadd66731837f0274813fae477433610972565b6104ae576040517f08c379a00000000000000000000000000000000000000000000000000000000081526004016104a590611318565b60405180910390fd5b61054c565b7f2af4c2fb0d9965fa818b9c58b2744b328ab67b082ec92907629457399dacdb3581805190602001200361054b5761050b7f940d6b1946ff1d2b5a9f1909219c3c81a370804b5ba0f91ec0828c99a2e6a68133610972565b61054a576040517f08c379a000000000000000000000000000000000000000000000000000000000815260040161054190611318565b60405180910390fd5b5b5b5b60405180608001604052808381526020013373ffffffffffffffffffffffffffffffffffffffff168152602001828152602001428152506001846040516105949190611249565b908152602001604051809103902060008201518160000190816105b79190611544565b5060208201518160010160006101000a81548173ffffffffffffffffffffffffffffffffffffffff021916908373ffffffffffffffffffffffffffffffffffffffff16021790555060408201518160020190816106149190611544565b5060608201518160030155905050505050565b6000806000838152602001908152602001600020600101549050919050565b61064f82610627565b61065881610a93565b6106628383610aa7565b50505050565b7f940d6b1946ff1d2b5a9f1909219c3c81a370804b5ba0f91ec0828c99a2e6a68181565b610694610b98565b73ffffffffffffffffffffffffffffffffffffffff168173ffffffffffffffffffffffffffffffffffffffff16146106f8576040517f6697b23200000000000000000000000000000000000000000000000000000000815260040160405180910390fd5b6107028282610ba0565b505050565b7fa49807205ce4d355092ef5a8a18f56e8913cf4a201fbe287825b095693c2177581565b6060600060606000806001866040516107449190611249565b908152602001604051809103902060405180608001604052908160008201805461076d90611367565b80601f016020809104026020016040519081016040528092919081815260200182805461079990611367565b80156107e65780601f106107bb576101008083540402835291602001916107e6565b820191906000526020600020905b8154815290600101906020018083116107c957829003601f168201915b505050505081526020016001820160009054906101000a900473ffffffffffffffffffffffffffffffffffffffff1673ffffffffffffffffffffffffffffffffffffffff1673ffffffffffffffffffffffffffffffffffffffff16815260200160028201805461085590611367565b80601f016020809104026020016040519081016040528092919081815260200182805461088190611367565b80156108ce5780601f106108a3576101008083540402835291602001916108ce565b820191906000526020600020905b8154815290600101906020018083116108b157829003601f168201915b505050505081526020016003820154815250509050600081606001510361092a576040517f08c379a000000000000000000000000000000000000000000000000000000000815260040161092190611662565b60405180910390fd5b80600001518160200151826040015183606001519450945094509450509193509193565b7f09fa0ba11487882f6f58527e85c124f586103e5123a9c74f7173b805235946d981565b600080600084815260200190815260200160002060000160008373ffffffffffffffffffffffffffffffffffffffff1673ffffffffffffffffffffffffffffffffffffffff16815260200190815260200160002060009054906101000a900460ff16905092915050565b6000801b81565b7f67ece15bd133b11598a907fb44de3d08dcf88cadd66731837f0274813fae477481565b610a1082610627565b610a1981610a93565b610a238383610ba0565b50505050565b60007f01ffc9a7000000000000000000000000000000000000000000000000000000007bffffffffffffffffffffffffffffffffffffffffffffffffffffffff1916827bffffffffffffffffffffffffffffffffffffffffffffffffffffffff1916149050919050565b610aa481610a9f610b98565b610c92565b50565b6000610ab38383610972565b610b8d57600160008085815260200190815260200160002060000160008473ffffffffffffffffffffffffffffffffffffffff1673ffffffffffffffffffffffffffffffffffffffff16815260200190815260200160002060006101000a81548160ff021916908315150217905550610b2a610b98565b73ffffffffffffffffffffffffffffffffffffffff168273ffffffffffffffffffffffffffffffffffffffff16847f2f8788117e7eff1d82e926ec794901d17c78024a50270940304540a733656f0d60405160405180910390a460019050610b92565b600090505b92915050565b600033905090565b6000610bac8383610972565b15610c8757600080600085815260200190815260200160002060000160008473ffffffffffffffffffffffffffffffffffffffff1673ffffffffffffffffffffffffffffffffffffffff16815260200190815260200160002060006101000a81548160ff021916908315150217905550610c24610b98565b73ffffffffffffffffffffffffffffffffffffffff168273ffffffffffffffffffffffffffffffffffffffff16847ff6391f5c32d9c69d2a47ea670b442974b53935d1edc7fd64eb21e047a839171b60405160405180910390a460019050610c8c565b600090505b92915050565b610c9c8282610972565b610cdf5780826040517fe2517d3f000000000000000000000000000000000000000000000000000000008152600401610cd6929190611682565b60405180910390fd5b5050565b6000604051905090565b600080fd5b600080fd5b60007fffffffff0000000000000000000000000000000000000000000000000000000082169050919050565b610d2c81610cf7565b8114610d3757600080fd5b50565b600081359050610d4981610d23565b92915050565b600060208284031215610d6557610d64610ced565b5b6000610d7384828501610d3a565b91505092915050565b60008115159050919050565b610d9181610d7c565b82525050565b6000602082019050610dac6000830184610d88565b92915050565b600080fd5b600080fd5b6000601f19601f8301169050919050565b7f4e487b7100000000000000000000000000000000000000000000000000000000600052604160045260246000fd5b610e0582610dbc565b810181811067ffffffffffffffff82111715610e2457610e23610dcd565b5b80604052505050565b6000610e37610ce3565b9050610e438282610dfc565b919050565b600067ffffffffffffffff821115610e6357610e62610dcd565b5b610e6c82610dbc565b9050602081019050919050565b82818337600083830152505050565b6000610e9b610e9684610e48565b610e2d565b905082815260208101848484011115610eb757610eb6610db7565b5b610ec2848285610e79565b509392505050565b600082601f830112610edf57610ede610db2565b5b8135610eef848260208601610e88565b91505092915050565b600080600060608486031215610f1157610f10610ced565b5b600084013567ffffffffffffffff811115610f2f57610f2e610cf2565b5b610f3b86828701610eca565b935050602084013567ffffffffffffffff811115610f5c57610f5b610cf2565b5b610f6886828701610eca565b925050604084013567ffffffffffffffff811115610f8957610f88610cf2565b5b610f9586828701610eca565b9150509250925092565b6000819050919050565b610fb281610f9f565b8114610fbd57600080fd5b50565b600081359050610fcf81610fa9565b92915050565b600060208284031215610feb57610fea610ced565b5b6000610ff984828501610fc0565b91505092915050565b61100b81610f9f565b82525050565b60006020820190506110266000830184611002565b92915050565b600073ffffffffffffffffffffffffffffffffffffffff82169050919050565b60006110578261102c565b9050919050565b6110678161104c565b811461107257600080fd5b50565b6000813590506110848161105e565b92915050565b600080604083850312156110a1576110a0610ced565b5b60006110af85828601610fc0565b92505060206110c085828601611075565b9150509250929050565b6000602082840312156110e0576110df610ced565b5b600082013567ffffffffffffffff8111156110fe576110fd610cf2565b5b61110a84828501610eca565b91505092915050565b600081519050919050565b600082825260208201905092915050565b60005b8381101561114d578082015181840152602081019050611132565b60008484015250505050565b600061116482611113565b61116e818561111e565b935061117e81856020860161112f565b61118781610dbc565b840191505092915050565b61119b8161104c565b82525050565b6000819050919050565b6111b4816111a1565b82525050565b600060808201905081810360008301526111d48187611159565b90506111e36020830186611192565b81810360408301526111f58185611159565b905061120460608301846111ab565b95945050505050565b600081905092915050565b600061122382611113565b61122d818561120d565b935061123d81856020860161112f565b80840191505092915050565b60006112558284611218565b915081905092915050565b7f446f63756d656e7420616c726561647920657869737473000000000000000000600082015250565b600061129660178361111e565b91506112a182611260565b602082019050919050565b600060208201905081810360008301526112c581611289565b9050919050565b7f556e617574686f72697a656420646f6d61696e20616363657373000000000000600082015250565b6000611302601a8361111e565b915061130d826112cc565b602082019050919050565b60006020820190508181036000830152611331816112f5565b9050919050565b7f4e487b7100000000000000000000000000000000000000000000000000000000600052602260045260246000fd5b6000600282049050600182168061137f57607f821691505b60208210810361139257611391611338565b5b50919050565b60008190508160005260206000209050919050565b60006020601f8301049050919050565b600082821b905092915050565b6000600883026113fa7fffffffffffffffffffffffffffffffffffffffffffffffffffffffffffffffff826113bd565b61140486836113bd565b95508019841693508086168417925050509392505050565b6000819050919050565b600061144161143c611437846111a1565b61141c565b6111a1565b9050919050565b6000819050919050565b61145b83611426565b61146f61146782611448565b8484546113ca565b825550505050565b600090565b611484611477565b61148f818484611452565b505050565b5b818110156114b3576114a860008261147c565b600181019050611495565b5050565b601f8211156114f8576114c981611398565b6114d2846113ad565b810160208510156114e1578190505b6114f56114ed856113ad565b830182611494565b50505b505050565b600082821c905092915050565b600061151b600019846008026114fd565b1980831691505092915050565b6000611534838361150a565b9150826002028217905092915050565b61154d82611113565b67ffffffffffffffff81111561156657611565610dcd565b5b6115708254611367565b61157b8282856114b7565b600060209050601f8311600181146115ae576000841561159c578287015190505b6115a68582611528565b86555061160e565b601f1984166115bc86611398565b60005b828110156115e4578489015182556001820191506020850194506020810190506115bf565b8683101561160157848901516115fd601f89168261150a565b8355505b6001600288020188555050505b505050505050565b7f446f63756d656e74206e6f7420666f756e640000000000000000000000000000600082015250565b600061164c60128361111e565b915061165782611616565b602082019050919050565b6000602082019050818103600083015261167b8161163f565b9050919050565b60006040820190506116976000830185611192565b6116a46020830184611002565b939250505056fea26469706673582212205849723c77357b6cc7cab9d78d1080670fb0b2f4ae6642cfa4dc21944fe10b7c64736f6c63430008140033",
  "linkReferences": {},
  "deployedLinkReferences": {}
}